:020000020000FC
:100000009927772744275527AA276AE04FEF4DBF46
:1000100041E24EBF0FEF00BB01B9002701BB02B99F
:100020000F93002708E3EFD0FED00F9116D10F9366
:10003000002708E3E8D0F7D00F9106D10F930027EF
:1000400008E3E1D0F0D00F910F93002708E3DBD055
:10005000EAD00F910F93002708E0D5D0E4D00F919C
:100060000F93002701E0CFD0DED00F910F93002730
:1000700006E0C9D0D8D00F910F9300270EE0C3D06F
:10008000D2D00F9140EF40930A014FEF47B9A8B982
:10009000A1300C944B003FEE11278827A8B9A0305F
:1000A000F0D11430C1F330930B014FEF4A95F1F7C3
:1000B000409109014F704F3059F021E0882784307A
:1000C00039F0542F522349F08395220F0C945F008E
:1000D000330F316013950C945100C5D0C4D0133048
:1000E00049F0833089F0482F440F480F410F4F5F8C
:1000F0000C949700803019F1813079F1823079F1D8
:10010000833069F10C944B00103031F0113049F01C
:100110001230F9F00C949400A230A030A2E00C94BC
:100120004B0040E00C94970040530C944B006AE065
:10013000969F902D940F405D40530C944B00A0303F
:10014000A1E0A8B9A1300C943B010C9433010C94AC
:100150004B00A130A0E00C944B000C944B00A1305C
:100160000C944B000FD00C944B002F933F934F9364
:100170005F936F937F932227332744275527662762
:10018000592F0DD02F933F934F935F936F937F938E
:10019000222733274427552766279927572F543678
:1001A00020F0545663950C94CF005A3020F05A50EA
:1001B00043950C94D500605D0F930027062F2AD03D
:1001C00032D00F910F9300270AE324D02CD00F9147
:1001D000405D0F930027042F1DD025D00F91505D57
:1001E0000F930027052F16D01ED00F910F930027D5
:1001F00000EC09D018D00F917F916F915F914F91D2
:100200003F912F91089501BB1FD0169A1DD01698CB
:100210001BD0089501BB179A17D0169A15D01698BF
:1002200013D0179808950F93002700BB01BB159AB0
:100230000BD0169A09D00FB1169807FDF9CF159873
:100240000FEF00BB0F9108958F939F939FE08CE970
:100250000197F1F79F918F910895F6DFF5DFF4DFB5
:10026000F3DFF2DF08953F9333273395F6DF343120
:10027000E4F33F9108950F93002701E0C4DFD3DF3B
:100280000F910F93002703E5C5DFCDDF0F910F938B
:10029000002705E4BFDFC7DF0F910F9300270CE4B1
:1002A000B9DFC1DF0F910F93002705E4B3DFBBDF98
:1002B0000F910F93002703E4ADDFB5DF0F910F938C
:1002C000002704E5A7DFAFDF0F910F93002700E2BF
:1002D000A1DFA9DF0F910F93002700E59BDFA3DFCC
:1002E0000F910F9300270FE495DF9DDF0F910F9380
:1002F000002707E58FDF97DF0F910F93002705E4B5
:1003000089DF91DF0F910F93002702E583DF8BDFF9
:100310000F910F93002700EC76DF85DF0F910F938D
:1003200000270CE477DF7FDF0F910F93002705E4B0
:1003300071DF79DF0F910F93002706E56BDF73DF25
:100340000F910F93002705E465DF6DDF0F910F9389
:1003500000270CE45FDF67DF0F910F9300270AE3AC
:1003600059DF61DF0F910F93002700E253DF5BDF5E
:100370000F910F93002701E34DDF55DF0F910F938E
:1003800000270CE247DF4FDF0F910F93002702E3B6
:1003900041DF49DF0F910F9300270CE23BDF43DF82
:1003A0000F910F93002703E335DF3DDF0F910C948E
:1003B0004B0008950F93002701E025DF34DF0F91F4
:1003C0000F93002704E426DF2EDF0F910F93002701
:1003D0000FE620DF28DF0F910F9300270EE61ADFCC
:1003E00022DF0F910F93002705E614DF1CDF0F912A
:1003F0000F93002700EC07DF16DF0F910F93002704
:1004000002E508DF10DF0F910F93002705E602DFFA
:100410000ADF0F910F9300270DE6FCDE04DF0F913A
:100420000F9300270FE6F6DEFEDE0F910F930027F5
:1004300006E7F0DEF8DE0F910F93002705E6EADE0F
:10044000F2DE0F910F93002700E2E4DEECDE0F9165
:100450000F93002706E6DEDEE6DE0F910F930027FE
:100460000FE6D8DEE0DE0F910F9300270FE6D2DE15
:10047000DADE0F910F93002704E6CCDED4DE0F9175
:1004800008950F93002701E0BEDECDDE0F917ADEE6
:020490000895CD
:00000001FF
