:020000020000FC
:100000009927772744275527A0E06AE04FEF4DBF97
:1000100041E24EBF0FEF00BB01B9002701BB02B99F
:100020000F93002708E34FD15ED10F9176D10F9344
:10003000002708E348D157D10F9166D10F930027CD
:1000400008E341D150D10F910F93002708E33BD132
:100050004AD10F910F93002708E035D144D10F9179
:100060000F93002701E02FD13ED10F910F9300276E
:1000700006E029D138D10F910F9300270EE023D14C
:1000800032D10F9140EF40930A014FEF47B9A7D209
:100090003FEE112788270FEF09B101FF0C947B0376
:1000A00008B91430A9F330930B014FEF4A95F1F7DB
:1000B000409109014F704F3059F021E0882784307A
:1000C00039F0542F522349F08395220F0C945F008E
:1000D000330F316013950C94510025D124D1133086
:1000E00079F18330F9F1A13039F0482F440F480FEE
:1000F000410F4F5F0C94D200813054F6103031F034
:10010000113039F0123041F00C944800FFEF0C949C
:100110008F00FFE00C948F00F3E00C948F00A0E0C0
:10012000F8B901D100D1FFD0FED0FDD0FCD0FBD07A
:10013000FAD0F9D0F8D0F7D0F6D051D20C944800CC
:10014000803041F0813041F0823041F0833041F025
:100150000C9448000C94DA000C9404010C940C01EB
:100160000C940C01103031F01130B1F0123071F1FB
:100170000C94CF00A23051F0A03021F0A33041F018
:100180000C944800A2E075D10C9448000C944800EF
:10019000A2E06FD10C94480040E00C94D200405390
:1001A0000C9448006AE0969F902D940F405D405358
:1001B0000C944800A03021F0A23031F00C9448009B
:1001C000A1E0B9D00C9448000C944800A13071F023
:1001D000A030C1F0A53071F0A23021F0A33071F051
:1001E0000C944800A3E03ED20C944800A0E0F7D164
:1001F0000C944800A0E0F3D10C944800A0E0EFD1AB
:100200000C9448000C944800A23011F00C94480063
:10021000A5E07ED10C944800A13011F00C94480068
:100220000C949B012F933F934F935F936F937F9316
:1002300022273327442755276627592F0DD02F9380
:100240003F934F935F936F937F93222733274427E6
:10025000552766279927572F543620F05456639513
:100260000C942C015A3020F05A5043950C943201D2
:10027000605D0F930027062F2DD035D00F910F937F
:1002800000270AE327D02FD00F91405D0F9300275E
:10029000042F20D028D00F91505D0F930027052FF9
:1002A00019D021D00F910F93002700EC0CD01BD058
:1002B0000F917F916F915F914F913F912F910C948E
:1002C00048000C949B0101BB1FD0169A1DD01698B4
:1002D0001BD0089501BB179A17D0169A15D01698FF
:1002E00013D0179808950F93002700BB01BB159AF0
:1002F0000BD0169A09D00FB1169807FDF9CF1598B3
:100300000FEF00BB0F9108958F939F939FE08CE9AF
:100310000197F1F79F918F910895F6DFF5DFF4DFF4
:10032000F3DFF2DF08953F9333273395F6DF34315F
:10033000E4F33F9108950F93002701E0C4DFD3DF7A
:100340000F910F93002703E5C5DFCDDF0F910F93CA
:10035000002705E4BFDFC7DF0F910F9300270CE4F0
:10036000B9DFC1DF0F910F93002705E4B3DFBBDFD7
:100370000F910F93002703E4ADDFB5DF0F910F93CB
:10038000002704E5A7DFAFDF0F910F93002700E2FE
:10039000A1DFA9DF0F910F93002700E59BDFA3DF0B
:1003A0000F910F9300270FE495DF9DDF0F910F93BF
:1003B000002707E58FDF97DF0F910F93002705E4F4
:1003C00089DF91DF0F910F93002702E583DF8BDF39
:1003D0000F910F93002700EC76DF85DF0F910F93CD
:1003E00000270CE477DF7FDF0F910F93002705E4F0
:1003F00071DF79DF0F910F93002706E56BDF73DF65
:100400000F910F93002705E465DF6DDF0F910F93C8
:1004100000270CE45FDF67DF0F910F9300270AE3EB
:1004200059DF61DF0F910F93002700E253DF5BDF9D
:100430000F910F93002701E34DDF55DF0F910F93CD
:1004400000270CE247DF4FDF0F910F93002702E3F5
:1004500041DF49DF0F910F9300270CE23BDF43DFC1
:100460000F910F93002703E335DF3DDF0F910C94CD
:1004700048000F93002701E026DF35DF0F910F932F
:10048000002702E527DF2FDF0F910F93002705E7F5
:1004900021DF29DF0F910F9300270EE61BDF23DFFB
:1004A0000F910F9300270EE615DF1DDF0F910F93BD
:1004B000002709E60FDF17DF0F910F9300270EE6E5
:1004C00009DF11DF0F910F93002707E603DF0BDF32
:1004D0000F910F93002700E2FDDE05DF0F910F93D0
:1004E00000270DE6F7DEFFDE0F910F9300270FE6E2
:1004F000F1DEF9DE0F910F93002704E6EBDEF3DE69
:100500000F910F93002705E6E5DEEDDE0F910895CC
:100510000F93002701E0D7DEE6DE0F910F9300274F
:1005200004E4D8DEE0DE0F910F9300270FE6D2DE61
:10053000DADE0F910F9300270EE6CCDED4DE0F91AA
:100540000F93002705E6C6DECEDE0F910F9300273E
:1005500000ECB9DEC8DE0F910F93002702E5BADE8A
:10056000C2DE0F910F93002705E6B4DEBCDE0F91CB
:100570000F9300270DE6AEDEB6DE0F910F93002736
:100580000FE6A8DEB0DE0F910F93002706E7A2DE8C
:10059000AADE0F910F93002705E69CDEA4DE0F91E3
:1005A0000F93002700E296DE9EDE0F910F93002747
:1005B00006E690DE98DE0F910F9300270FE68ADEA5
:1005C00092DE0F910F9300270FE684DE8CDE0F91F1
:1005D0000F93002704E67EDE86DE0F9108950F93C9
:1005E000002701E070DE7FDE0F910F93002705E406
:1005F00071DE79DE0F910F9300270EE66BDE73DE5E
:100600000F910F93002704E765DE6DDE0F910F93C6
:10061000002702E75FDE67DE0F910F93002709E7EF
:1006200059DE61DE0F910F93002700E253DE5BDE9F
:100630000F910F9300270DE64DDE55DE0F910F93BE
:1006400000270FE647DE4FDE0F910F93002704E6E9
:1006500041DE49DE0F910F93002705E63BDE43DEC6
:100660000F9108950F93002701E02DDE3CDE0F91DE
:100670000F93002700E52EDE36DE0F910F93002743
:1006800001E628DE30DE0F910F93002705E722DE1A
:100690002ADE0F910F93002703E71CDE24DE0F9163
:1006A0000F93002705E616DE1EDE0F910F9300273D
:1006B00004E610DE18DE0F910F93002700E20ADE39
:1006C00012DE0F910F9300270DE604DE0CDE0F9172
:1006D0000F9300270FE6FEDD06DE0F910F93002734
:1006E00004E6F8DD00DE0F910F93002705E6F2DD4A
:1006F000FADD0F9108950F93002701E0E4DDF3DDAB
:100700000F910F93002704E4E5DDEDDD0F910F93CA
:1007100000270FE6DFDDE7DD0F910F9300270FE6DF
:10072000D9DDE1DD0F910F93002702E7D3DDDBDD9B
:100730000F910F93002700E2CDDDD5DD0F910F93D0
:1007400000270FE6C7DDCFDD0F910F93002700E7ED
:10075000C1DDC9DD0F910F93002705E6BBDDC3DDC9
:100760000F910F9300270EE6B5DDBDDD0F910895C3
:00000001FF
