:020000020000FC
:100000009927772744275527A0E06AE04FEF4DBF97
:1000100041E24EBF0FEF00BB01B9002701BB02B99F
:100020000F93002708E3F2D001D10F9119D10F935C
:10003000002708E3EBD0FAD00F9109D10F930027E6
:1000400008E3E4D0F3D00F910F93002708E3DED04C
:10005000EDD00F910F93002708E0D8D0E7D00F9193
:100060000F93002701E0D2D0E1D00F910F9300272A
:1000700006E0CCD0DBD00F910F9300270EE0C6D066
:10008000D5D00F9140EF40930A014FEF47B9A1300F
:100090000C944A003FEE11278827A8B9EFEF1430DF
:1000A000C9F330930B014FEF4A95F1F740910901E5
:1000B0004F704F3059F021E08827843039F0542FA9
:1000C000522349F08395220F0C945D00330F316069
:1000D00013950C944F00CAD0C9D0133049F0833027
:1000E00089F0482F440F480F410F4F5F0C94970041
:1000F000803029F18130A9F18230A9F1833099F162
:100100000C944A00103031F0113059F0123019F1CE
:100110000C949400A230A030A2E0A2304DD10C94F7
:100120004A0040E00C94970040530C944A006AE067
:10013000969F902D940F405D40530C944A00A03040
:10014000A1E0A2300C944A00A1300C943E010C9422
:1001500036010C944A00A130A0E0A030E3D10C9409
:100160004A000C944A00A13089D00C944A002F9385
:100170003F934F935F936F937F93222733274427B7
:1001800055276627592F0DD02F933F934F935F9399
:100190006F937F9322273327442755276627992774
:1001A000572F543620F0545663950C94D1005A3092
:1001B00020F05A5043950C94D700605D0F930027B0
:1001C000062F2BD033D00F910F9300270AE325D0B1
:1001D0002DD00F91405D0F930027042F1ED026D005
:1001E0000F91505D0F930027052F17D01FD00F914F
:1001F0000F93002700EC0AD019D00F917F916F91D7
:100200005F914F913F912F910C944A0001BB1FD0F9
:10021000169A1DD016981BD0089501BB179A17D0B7
:10022000169A15D0169813D0179808950F93002793
:1002300000BB01BB159A0BD0169A09D00FB11698C6
:1002400007FDF9CF15980FEF00BB0F9108958F931D
:100250009F939FE08CE90197F1F79F918F9108950B
:10026000F6DFF5DFF4DFF3DFF2DF08953F933327A6
:100270003395F6DF3431E4F33F9108950F9300276F
:1002800001E0C4DFD3DF0F910F93002703E5C5DF43
:10029000CDDF0F910F93002705E4BFDFC7DF0F917C
:1002A0000F9300270CE4B9DFC1DF0F910F930027F4
:1002B00005E4B3DFBBDF0F910F93002703E4ADDF4D
:1002C000B5DF0F910F93002704E5A7DFAFDF0F9194
:1002D0000F93002700E2A1DFA9DF0F910F93002702
:1002E00000E59BDFA3DF0F910F9300270FE495DF5D
:1002F0009DDF0F910F93002707E58FDF97DF0F91A9
:100300000F93002705E489DF91DF0F910F930027FA
:1003100002E583DF8BDF0F910F93002700EC76DF80
:1003200085DF0F910F9300270CE477DF7FDF0F91BC
:100330000F93002705E471DF79DF0F910F930027FA
:1003400006E56BDF73DF0F910F93002705E465DF90
:100350006DDF0F910F9300270CE45FDF67DF0F91D4
:100360000F9300270AE359DF61DF0F910F930027F6
:1003700000E253DF5BDF0F910F93002701E34DDFB6
:1003800055DF0F910F9300270CE247DF4FDF0F91EE
:100390000F93002702E341DF49DF0F910F930027FE
:1003A0000CE23BDF43DF0F910F93002703E335DFC0
:1003B0003DDF0F910C944A000F93002701E026DFE8
:1003C00035DF0F910F93002702E527DF2FDF0F9115
:1003D0000F93002705E721DF29DF0F910F930027F7
:1003E0000EE61BDF23DF0F910F9300270EE615DFCC
:1003F0001DDF0F910F93002709E60FDF17DF0F9125
:100400000F9300270EE609DF11DF0F910F930027EE
:1004100007E603DF0BDF0F910F93002700E2FDDEFD
:1004200005DF0F910F9300270DE6F7DEFFDE0F913A
:100430000F9300270FE6F1DEF9DE0F910F930027EF
:1004400004E6EBDEF3DE0F910F93002705E6E5DE11
:10045000EDDE0F9108950F93002701E0D7DEE6DE71
:100460000F910F93002704E4D8DEE0DE0F910F9385
:1004700000270FE6D2DEDADE0F910F9300270EE69B
:10048000CCDED4DE0F910F93002705E6C6DECEDE6C
:100490000F910F93002700ECB9DEC8DE0F910F9388
:1004A000002702E5BADEC2DE0F910F93002705E6B2
:1004B000B4DEBCDE0F910F9300270DE6AEDEB6DE94
:1004C0000F910F9300270FE6A8DEB0DE0F910F9378
:1004D000002706E7A2DEAADE0F910F93002705E6AC
:1004E0009CDEA4DE0F910F93002700E296DE9EDED5
:1004F0000F910F93002706E690DE98DE0F910F9381
:1005000000270FE68ADE92DE0F910F9300270FE699
:1005100084DE8CDE0F910F93002704E67EDE86DEFC
:100520000F9108950F93002701E070DE7FDE0F9199
:100530000F93002705E471DE79DE0F910F930027FA
:100540000EE66BDE73DE0F910F93002704E765DE86
:100550006DDE0F910F93002702E75FDE67DE0F91DC
:100560000F93002709E759DE61DE0F910F930027F3
:1005700000E253DE5BDE0F910F9300270DE64DDEA8
:1005800055DE0F910F9300270FE647DE4FDE0F91E8
:100590000F93002704E641DE49DE0F910F930027F9
:0A05A00005E63BDE43DE0F910895EF
:00000001FF
