:020000020000FC
:100000009927772744275527A0E06AE04FEF4DBF97
:1000100041E24EBF0FEF00BB01B9002701BB02B99F
:100020000F93002708E316D125D10F913DD10F93EF
:10003000002708E30FD11ED10F912DD10F93002778
:1000400008E308D117D10F910F93002708E302D1DD
:1000500011D10F910F93002708E0FCD00BD10F9125
:100060000F93002701E0F6D005D10F910F930027E1
:1000700006E0F0D0FFD00F910F9300270EE0EAD0FA
:10008000F9D00F9140EF40930A014FEF47B9A130EB
:100090000C944A003FEE11278827A8B91430D1F3F9
:1000A00030930B014FEF4A95F1F7409109014F70E2
:1000B0004F3059F021E08827843039F0542F5223F3
:1000C00049F08395220F0C945C00330F3160139537
:1000D0000C944E00EFD0EED0133049F08330C9F0CD
:1000E000482F440F480F410F4F5F0C94A3008030FE
:1000F00041F0813041F0823041F0833041F00C9486
:100100004A000C94AB000C94CB000C94D3000C94DC
:10011000D300103031F0113081F0123041F10C94E5
:10012000A000A23041F0A03011F00C944A00A2E0EF
:1001300067D10C944A000C944A0040E00C94A30050
:1001400040530C944A006AE0969F902D940F405DB6
:1001500040530C944A00A03021F0A23031F00C94AE
:100160004A00A1E0AFD00C944A000C944A00A130A0
:10017000A0E0A030FBD10C944A000C944A00A0E00F
:10018000F5D10C944A00A0E0F1D10C944A00A0E013
:10019000EDD10C944A00A23011F00C944A00A5E075
:1001A0007ED10C944A00A13011F00C944A000C94BA
:1001B00062012F933F934F935F936F937F93222717
:1001C0003327442755276627592F0DD02F933F9368
:1001D0004F935F936F937F932227332744275527AD
:1001E00066279927572F543620F0545663950C9460
:1001F000F3005A3020F05A5043950C94F900605D9A
:100200000F930027062F2DD035D00F910F93002785
:100210000AE327D02FD00F91405D0F930027042FC2
:1002200020D028D00F91505D0F930027052F19D0B3
:1002300021D00F910F93002700EC0CD01BD00F9111
:100240007F916F915F914F913F912F910C944A0054
:100250000C94620101BB1FD0169A1DD016981BD0BA
:10026000089501BB179A17D0169A15D0169813D077
:10027000179808950F93002700BB01BB159A0BD068
:10028000169A09D00FB1169807FDF9CF15980FEF00
:1002900000BB0F9108958F939F939FE08CE9019786
:1002A000F1F79F918F910895F6DFF5DFF4DFF3DF2B
:1002B000F2DF08953F9333273395F6DF3431E4F3CB
:1002C0003F9108950F93002701E0C4DFD3DF0F9122
:1002D0000F93002703E5C5DFCDDF0F910F930027B4
:1002E00005E4BFDFC7DF0F910F9300270CE4B9DFF0
:1002F000C1DF0F910F93002705E4B3DFBBDF0F9140
:100300000F93002703E4ADDFB5DF0F910F930027B4
:1003100004E5A7DFAFDF0F910F93002700E2A1DF15
:10032000A9DF0F910F93002700E59BDFA3DF0F915B
:100330000F9300270FE495DF9DDF0F910F930027A8
:1003400007E58FDF97DF0F910F93002705E489DF23
:1003500091DF0F910F93002702E583DF8BDF0F9171
:100360000F93002700EC76DF85DF0F910F930027B6
:100370000CE477DF7FDF0F910F93002705E471DF37
:1003800079DF0F910F93002706E56BDF73DF0F9185
:100390000F93002705E465DF6DDF0F910F930027B2
:1003A0000CE45FDF67DF0F910F9300270AE359DF4B
:1003B00061DF0F910F93002700E253DF5BDF0F91A6
:1003C0000F93002701E34DDF55DF0F910F930027B7
:1003D0000CE247DF4FDF0F910F93002702E341DF6D
:1003E00049DF0F910F9300270CE23BDF43DF0F91B2
:1003F0000F93002703E335DF3DDF0F910C944A0094
:100400000F93002701E026DF35DF0F910F930027C0
:1004100002E527DF2FDF0F910F93002705E721DF8C
:1004200029DF0F910F9300270EE61BDF23DF0F91CB
:100430000F9300270EE615DF1DDF0F910F930027A6
:1004400009E60FDF17DF0F910F9300270EE609DF94
:1004500011DF0F910F93002707E603DF0BDF0F91EA
:100460000F93002700E2FDDE05DF0F910F930027B9
:100470000DE6F7DEFFDE0F910F9300270FE6F1DEAA
:10048000F9DE0F910F93002704E6EBDEF3DE0F9108
:100490000F93002705E6E5DEEDDE0F9108950F933B
:1004A000002701E0D7DEE6DE0F910F93002704E47A
:1004B000D8DEE0DE0F910F9300270FE6D2DEDADE02
:1004C0000F910F9300270EE6CCDED4DE0F910F9331
:1004D000002705E6C6DECEDE0F910F93002700EC65
:1004E000B9DEC8DE0F910F93002702E5BADEC2DE47
:1004F0000F910F93002705E6B4DEBCDE0F910F933A
:1005000000270DE6AEDEB6DE0F910F9300270FE653
:10051000A8DEB0DE0F910F93002706E7A2DEAADE69
:100520000F910F93002705E69CDEA4DE0F910F9339
:10053000002700E296DE9EDE0F910F93002706E66D
:1005400090DE98DE0F910F9300270FE68ADE92DE91
:100550000F910F9300270FE684DE8CDE0F910F932F
:10056000002704E67EDE86DE0F9108950F930027B4
:1005700001E070DE7FDE0F910F93002705E471DE4E
:1005800079DE0F910F9300270EE66BDE73DE0F917D
:100590000F93002704E765DE6DDE0F910F930027B0
:1005A00002E75FDE67DE0F910F93002709E759DE50
:1005B00061DE0F910F93002700E253DE5BDE0F91A7
:1005C0000F9300270DE64DDE55DE0F910F930027A8
:1005D0000FE647DE4FDE0F910F93002704E641DE62
:1005E00049DE0F910F93002705E63BDE43DE0F91B6
:0405F0000C944A001D
:00000001FF
