:020000020000FC
:1000000099277727442755276AE04FEF4DBF41E2F4
:100010004EBF0FEF00BB01B9002701BB02B90F9320
:10002000002708E3F3D002D10F911AD10F930027D4
:1000300008E3ECD0FBD00F910AD10F93002708E31F
:10004000E5D0F4D00F910F93002708E3DFD0EED076
:100050000F910F93002708E0D9D0E8D00F910F93AC
:10006000002701E0D3D0E2D00F910F93002706E0E4
:10007000CDD0DCD00F910F9300270EE0C7D0D6D0A3
:100080000F9140EF40930A014FEF47B9A1300C9414
:100090004A007AD03FEE112788271430D9F33093E5
:1000A0000B014FEF4A95F1F7409109014F704F3026
:1000B00059F021E08827843039F0542F522349F039
:1000C0008395220F0C945B00330F316013950C94D1
:1000D0004D00CCD0CBD0133049F0833089F0482F7D
:1000E000440F480F410F4F5F0C949400803021F172
:1000F000813079F1823079F1833069F10C944A00D2
:10010000103031F0113049F01230F9F00C949000B9
:10011000A230A030A2E00C94000040E00C949400C7
:10012000405348B90C944A006AE0969F902D940F72
:10013000405D40530C944A00A030A1E0A1300C94E3
:100140003E010C9436010C940000A130A0E00C9408
:1001500000000C940000A1300C944A000F9300277B
:1001600001E054D063D00F910FD00C944A002F932C
:100170003F934F935F936F937F93222733274427B7
:1001800055276627592F0DD02F933F934F935F9399
:100190006F937F9322273327442755276627992774
:1001A000572F543620F0545663950C94D1005A3092
:1001B00020F05A5043950C94D70048B9605D0F93D6
:1001C0000027062F2AD032D00F910F9300270AE381
:1001D00024D02CD00F91405D0F930027042F1DD009
:1001E00025D00F91505D0F930027052F16D01ED0FC
:1001F0000F910F93002700EC09D018D00F917F9139
:100200006F915F914F913F912F91089501BB1FD046
:10021000169A1DD016981BD0089501BB179A17D0B7
:10022000169A15D0169813D0179808950F93002793
:1002300000BB01BB159A0BD0169A09D00FB11698C6
:1002400007FDF9CF15980FEF00BB0F9108958F931D
:100250009F939FE08CE90197F1F79F918F9108950B
:10026000F6DFF5DFF4DFF3DFF2DF08953F933327A6
:100270003395F6DF3431E4F33F910895A8B90F9335
:10028000002701E0C3DFD2DF0F910F93002703E5C2
:10029000C4DFCCDF0F910F93002705E4BEDFC6DF7C
:1002A0000F910F9300270CE4B8DFC0DF0F910F937D
:1002B000002705E4B2DFBADF0F910F93002703E4B4
:1002C000ACDFB4DF0F910F93002704E5A6DFAEDFAC
:1002D0000F910F93002700E2A0DFA8DF0F910F938B
:1002E000002700E59ADFA2DF0F910F9300270FE4AC
:1002F00094DF9CDF0F910F93002707E58EDF96DFD9
:100300000F910F93002705E488DF90DF0F910F9383
:10031000002702E582DF8ADF0F910F93002700ECB0
:1003200075DF84DF0F910F9300270CE476DF7EDF0B
:100330000F910F93002705E470DF78DF0F910F9383
:10034000002706E56ADF72DF0F910F93002705E4AF
:1003500064DF6CDF0F910F9300270CE45EDF66DF34
:100360000F910F9300270AE358DF60DF0F910F937F
:10037000002700E252DF5ADF0F910F93002701E3BD
:100380004CDF54DF0F910F9300270CE246DF4EDF66
:100390000F910F93002702E340DF48DF0F910F9387
:1003A00000270CE23ADF42DF0F910F93002703E3AF
:1003B00034DF3CDF0F91089508950F93002701E08B
:1003C00025DF34DF0F910F93002704E426DF2EDFB3
:1003D0000F910F9300270FE620DF28DF0F910F9377
:1003E00000270EE61ADF22DF0F910F93002705E6A4
:1003F00014DF1CDF0F910F93002700EC07DF16DFDF
:100400000F910F93002702E508DF10DF0F910F9384
:10041000002705E602DF0ADF0F910F9300270DE6A4
:10042000FCDE04DF0F910F9300270FE6F6DEFEDE01
:100430000F910F93002706E7F0DEF8DE0F910F9380
:10044000002705E6EADEF2DE0F910F93002700E2B7
:10045000E4DEECDE0F910F93002706E6DEDEE6DE3B
:100460000F910F9300270FE6D8DEE0DE0F910F9378
:1004700000270FE6D2DEDADE0F910F93002704E6A5
:06048000CCDED4DE0F917A
:00000001FF
