:020000020000FC
:100000009927772744275527A0E0FFEF6AE04FEFB5
:100010004DBF41E24EBF0FEF00BB01B9002701BB4E
:1000200002B90F93002708E353D162D10F917AD11F
:100030000F93002708E34CD15BD10F916AD10F9346
:10004000002708E345D154D10F910F93002708E30F
:100050003FD14ED10F910F93002708E039D148D1FD
:100060000F910F93002701E033D142D10F910F93ED
:10007000002706E02DD13CD10F910F9300270EE011
:1000800027D136D10F9140EF40930A014FEF47B986
:10009000ABD23FEE112788270FEF09B1A43039F01A
:1000A000F8B901FD0C945E00AF93A4E029C300FDF4
:1000B0000C944900AF9131D20C944900143049F3AB
:1000C00030930B014FEF4A95F1F7409109014F70C2
:1000D0004F3059F021E08827843039F0542F5223D3
:1000E00049F08395220F0C946C00330F3160139507
:1000F0000C945E001DD11CD1133039F1833049F0CE
:10010000A13049F0482F440F480F410F4F5F0C9426
:10011000D7000C94B70081308CF4103031F01130DE
:1001200039F0123041F00C944900FFEF0C94A0001C
:10013000FFE00C94A000F3E00C94A0000C944900A4
:10014000A0E0F8B951D20C944900803041F08130E0
:1001500041F0823041F0833041F00C9449000C941E
:10016000DF000C9409010C9411010C941101103062
:1001700031F01130B1F0123071F10C94D400A23092
:1001800051F0A03021F0A33041F00C944900A2E0DE
:1001900075D10C9449000C944900A2E06FD10C94E5
:1001A000490040E00C94D70040530C9449006AE0A9
:1001B000969F902D940F405D40530C944900A030C1
:1001C00021F0A23031F00C944900A1E0B9D00C9498
:1001D00049000C944900A13071F0A030C1F0A53065
:1001E00071F0A23021F0A33071F00C944900A3E02B
:1001F0003ED20C944900A0E0F7D10C944900A0E055
:10020000F3D10C944900A0E0EFD10C9449000C9478
:100210004900A23011F00C944900A5E07ED10C9465
:100220004900A13011F00C9449000C94A0012F93C7
:100230003F934F935F936F937F93222733274427F6
:1002400055276627592F0DD02F933F934F935F93D8
:100250006F937F93222733274427552766279927B3
:10026000572F543620F0545663950C9431015A3070
:1002700020F05A5043950C943701605D0F9300278E
:10028000062F2DD035D00F910F9300270AE327D0EA
:100290002FD00F91405D0F930027042F20D028D03E
:1002A0000F91505D0F930027052F19D021D00F918A
:1002B0000F93002700EC0CD01BD00F917F916F9112
:1002C0005F914F913F912F910C9449000C94A001A4
:1002D00001BB1FD0169A1DD016981BD0089501BBE4
:1002E000179A17D0169A15D0169813D01798089504
:1002F0000F93002700BB01BB159A0BD0169A09D0AB
:100300000FB1169807FDF9CF15980FEF00BB0F91AD
:1003100008958F939F939FE08CE90197F1F79F9148
:100320008F910895F6DFF5DFF4DFF3DFF2DF089554
:100330003F9333273395F6DF3431E4F33F9108954B
:100340000F93002701E0C4DFD3DF0F910F93002745
:1003500003E5C5DFCDDF0F910F93002705E4BFDF75
:10036000C7DF0F910F9300270CE4B9DFC1DF0F91B6
:100370000F93002705E4B3DFBBDF0F910F93002736
:1003800003E4ADDFB5DF0F910F93002704E5A7DF8E
:10039000AFDF0F910F93002700E2A1DFA9DF0F91DC
:1003A0000F93002700E59BDFA3DF0F910F9300273A
:1003B0000FE495DF9DDF0F910F93002707E58FDF97
:1003C00097DF0F910F93002705E489DF91DF0F91ED
:1003D0000F93002702E583DF8BDF0F910F93002738
:1003E00000EC76DF85DF0F910F9300270CE477DFB9
:1003F0007FDF0F910F93002705E471DF79DF0F9105
:100400000F93002706E56BDF73DF0F910F93002733
:1004100005E465DF6DDF0F910F9300270CE45FDFCC
:1004200067DF0F910F9300270AE359DF61DF0F9118
:100430000F93002700E253DF5BDF0F910F9300273C
:1004400001E34DDF55DF0F910F9300270CE247DFEB
:100450004FDF0F910F93002702E341DF49DF0F9138
:100460000F9300270CE23BDF43DF0F910F93002730
:1004700003E335DF3DDF0F910C9449000F93002714
:1004800001E026DF35DF0F910F93002702E527DF1C
:100490002FDF0F910F93002705E721DF29DF0F9151
:1004A0000F9300270EE61BDF23DF0F910F9300272A
:1004B0000EE615DF1DDF0F910F93002709E60FDF12
:1004C00017DF0F910F9300270EE609DF11DF0F9161
:1004D0000F93002707E603DF0BDF0F910F93002731
:1004E00000E2FDDE05DF0F910F9300270DE6F7DE3A
:1004F000FFDE0F910F9300270FE6F1DEF9DE0F917B
:100500000F93002704E6EBDEF3DE0F910F93002735
:1005100005E6E5DEEDDE0F9108950F93002701E07B
:10052000D7DEE6DE0F910F93002704E4D8DEE0DE8D
:100530000F910F9300270FE6D2DEDADE0F910F93B3
:1005400000270EE6CCDED4DE0F910F93002705E6E0
:10055000C6DECEDE0F910F93002700ECB9DEC8DEB9
:100560000F910F93002702E5BADEC2DE0F910F93C1
:10057000002705E6B4DEBCDE0F910F9300270DE6E1
:10058000AEDEB6DE0F910F9300270FE6A8DEB0DED9
:100590000F910F93002706E7A2DEAADE0F910F93BB
:1005A000002705E69CDEA4DE0F910F93002700E2F2
:1005B00096DE9EDE0F910F93002706E690DE98DE12
:1005C0000F910F9300270FE68ADE92DE0F910F93B3
:1005D00000270FE684DE8CDE0F910F93002704E6E0
:1005E0007EDE86DE0F9108950F93002701E070DE16
:1005F0007FDE0F910F93002705E471DE79DE0F9106
:100600000F9300270EE66BDE73DE0F910F9300272A
:1006100004E765DE6DDE0F910F93002702E75FDED2
:1006200067DE0F910F93002709E759DE61DE0F9116
:100630000F93002700E253DE5BDE0F910F9300273C
:100640000DE64DDE55DE0F910F9300270FE647DED6
:100650004FDE0F910F93002704E641DE49DE0F9134
:100660000F93002705E63BDE43DE0F9108950F93BD
:10067000002701E02DDE3CDE0F910F93002700E5FF
:100680002EDE36DE0F910F93002701E628DE30DEE6
:100690000F910F93002705E722DE2ADE0F910F93BB
:1006A000002703E71CDE24DE0F910F93002705E6E9
:1006B00016DE1EDE0F910F93002704E610DE18DE13
:1006C0000F910F93002700E20ADE12DE0F910F93C5
:1006D00000270DE604DE0CDE0F910F9300270FE6D6
:1006E000FEDD06DE0F910F93002704E6F8DD00DE45
:1006F0000F910F93002705E6F2DDFADD0F910895C3
:100700000F93002701E0E4DDF3DD0F910F93002745
:1007100004E4E5DDEDDD0F910F9300270FE6DFDD4B
:10072000E7DD0F910F9300270FE6D9DDE1DD0F9193
:100730000F93002702E7D3DDDBDD0F910F93002736
:1007400000E2CDDDD5DD0F910F9300270FE6C7DD69
:10075000CFDD0F910F93002700E7C1DDC9DD0F91B9
:100760000F93002705E6BBDDC3DD0F910F93002734
:0C0770000EE6B5DDBDDD0F910C944900D4
:00000001FF
