:020000020000FC
:100000009927772744275527A0E070E0FFEF6AE0A3
:100010004FEF4DBF41E24EBF0FEF00BB01B90027CC
:1000200001BB02B90F93002708E326D135D10F9108
:100030004DD10F93002708E31FD12ED10F913DD151
:100040000F93002708E318D127D10F910F930027B2
:1000500008E312D121D10F910F93002708E00CD1B2
:100060001BD10F910F93002701E006D115D10F91FD
:100070000F93002706E000D10FD10F910F930027B7
:100080000EE0FAD009D10F9140EF40930A014FEFF3
:1000900047B943BBA8B99CD23FEE112788270FEF81
:1000A00009B1A43039F0F8B901FD0C948100AF9387
:1000B000A4E0FDC2F4BB00FD0C944C00AF9114BB56
:1000C000A03041F0A23051F0A53061F0A33079F0BA
:1000D000A13089F00C94E8020C944C000C9432028C
:1000E0000C944C000C94E802A0E00C944C000C948E
:1000F0000E030C944C000C9474010C944C000C9462
:100100004C00143049F230930B014FEF4A95F1F750
:10011000409109014F704F3059F021E08827843019
:1001200039F0542F522349F08395220F0C948F00FD
:10013000330F316013950C948100CED0CDD01330A5
:1001400039F1833049F0A13049F0482F440F480F6E
:10015000410F4F5F0C94FA000C94DA0081308CF45C
:10016000103031F0113039F0123041F00C944C0065
:10017000FFEF0C94C300FFE00C94C300F3E00C9479
:10018000C3000C944C00A0E0F8B922D20C944C00AF
:10019000803041F0813041F0823041F0833041F0D5
:1001A0000C944C000C9402010C942C010C9434011E
:1001B0000C943401103031F01130B1F0123071F183
:1001C0000C94F700A23051F0A03021F0A33041F0A0
:1001D0000C944C00A2E046D10C944C000C944C00C2
:1001E000A2E040D10C944C0040E00C94FA00405343
:1001F0000C944C006AE0969F902D940F405D405304
:100200000C944C00A03021F0A23031F00C944C0042
:10021000A1E06AD00C944C000C944C00A13071F019
:10022000A030C1F0A53071F0A23021F0A33071F000
:100230000C944C00A3E0F2D10C944C00A0E0C8D187
:100240000C944C00A0E0C4D10C944C00A0E0C0D1B0
:100250000C944C000C944C00A23011F00C944C0007
:10026000A5E04FD10C944C00A13011F00C944C003F
:100270000C9474010C94740101BB1FD0169A1DD00C
:1002800016981BD0089501BB179A17D0169A15D04F
:10029000169813D0179808950F93002700BB01BB41
:1002A000159A0BD0169A09D00FB1169807FDF9CF01
:1002B00015980FEF00BB0F9108958F939F939FE0C8
:1002C0008CE90197F1F79F918F910895F6DFF5DFA3
:1002D000F4DFF3DFF2DF08953F9333273395F6DF42
:1002E0003431E4F33F9108950F93002701E0C4DF18
:1002F000D3DF0F910F93002703E5C5DFCDDF0F910B
:100300000F93002705E4BFDFC7DF0F910F9300278E
:100310000CE4B9DFC1DF0F910F93002705E4B3DFD1
:10032000BBDF0F910F93002703E4ADDFB5DF0F9123
:100330000F93002704E5A7DFAFDF0F910F9300278E
:1003400000E2A1DFA9DF0F910F93002700E59BDFFB
:10035000A3DF0F910F9300270FE495DF9DDF0F912F
:100360000F93002707E58FDF97DF0F910F9300278B
:1003700005E489DF91DF0F910F93002702E583DF0A
:100380008BDF0F910F93002700EC76DF85DF0F9155
:100390000F9300270CE477DF7FDF0F910F93002787
:1003A00005E471DF79DF0F910F93002706E56BDF1E
:1003B00073DF0F910F93002705E465DF6DDF0F9169
:1003C0000F9300270CE45FDF67DF0F910F93002787
:1003D0000AE359DF61DF0F910F93002700E253DF3B
:1003E0005BDF0F910F93002701E34DDF55DF0F9186
:1003F0000F9300270CE247DF4FDF0F910F93002789
:1004000002E341DF49DF0F910F9300270CE23BDF4E
:1004100043DF0F910F93002703E335DF3DDF0F919B
:100420000F93002700E22FDF37DF0F910F93002794
:1004300000E229DF31DF0F910F93002700E223DF75
:100440002BDF0F9170FF0F93002703E41CDF24DFE5
:100450000F9170FD0F9300270FE415DF1DDF0F9143
:100460000C944C000F93002701E006DF15DF0F917D
:100470000F93002702E507DF0FDF0F910F9300278F
:1004800005E701DF09DF0F910F9300270EE6FBDE82
:1004900003DF0F910F9300270EE6F5DEFDDE0F91CF
:1004A0000F93002709E6EFDEF7DE0F910F93002789
:1004B0000EE6E9DEF1DE0F910F93002707E6E3DE9B
:1004C000EBDE0F910F93002700E2DDDEE5DE0F91FA
:1004D0000F9300270DE6D7DEDFDE0F910F93002785
:1004E0000FE6D1DED9DE0F910F93002704E6CBDEB5
:1004F000D3DE0F910F93002705E6C5DECDDE0F9109
:1005000008950F93002701E0B7DEC6DE0F910F9329
:10051000002704E4B8DEC0DE0F910F9300270FE63A
:10052000B2DEBADE0F910F9300270EE6ACDEB4DE2A
:100530000F910F93002705E6A6DEAEDE0F910F9315
:10054000002700EC99DEA8DE0F910F93002702E54B
:100550009ADEA2DE0F910F93002705E694DE9CDE63
:100560000F910F9300270DE68EDE96DE0F910F930D
:1005700000270FE688DE90DE0F910F93002706E735
:1005800082DE8ADE0F910F93002705E67CDE84DE93
:100590000F910F93002700E276DE7EDE0F910F931E
:1005A000002706E670DE78DE0F910F9300270FE636
:1005B0006ADE72DE0F910F9300270FE664DE6CDEB9
:1005C0000F910F93002704E65EDE66DE0F9108951B
:1005D0000F93002701E050DE5FDE0F910F9300279D
:1005E00000E351DE59DE0F910F93002700E34BDE4D
:1005F00053DE0F910F9300270AE345DE4DDE0F9186
:100600000F93002700E33FDE47DE0F910F93002793
:1006100000E339DE41DE0F910C944C000F9300276C
:1006200001E02ADE39DE0F910F93002700E52BDE73
:1006300033DE0F910F93002701E625DE2DDE0F91AB
:100640000F93002705E71FDE27DE0F910F9300278A
:1006500003E719DE21DE0F910F93002705E613DE75
:100660001BDE0F910F93002704E60DDE15DE0F91C0
:100670000F93002700E207DE0FDE0F910F93002794
:100680000DE601DE09DE0F910F9300270FE6FBDD7B
:1006900003DE0F910F93002704E6F5DDFDDD0F91DA
:1006A0000F93002705E6EFDDF7DD0F9108950F9317
:1006B000002701E0E1DDF0DD0F910F93002704E456
:1006C000E2DDEADD0F910F9300270FE6DCDDE4DDCC
:1006D0000F910F9300270FE6D6DDDEDD0F910F930C
:1006E000002702E7D0DDD8DD0F910F93002700E24D
:1006F000CADDD2DD0F910F9300270FE6C4DDCCDDFC
:100700000F910F93002700E7BEDDC6DD0F910F9319
:10071000002705E6B8DDC0DD0F910F9300270EE638
:0A072000B2DDBADD0F910C944C001D
:00000001FF
