:020000020000FC
:100000009927772744275527A0E0FFEF6AE04FEFB5
:100010004DBF41E24EBF0FEF00BB01B9002701BB4E
:1000200002B90F93002708E373D182D10F919AD1BF
:100030000F93002708E36CD17BD10F918AD10F93E6
:10004000002708E365D174D10F910F93002708E3CF
:100050005FD16ED10F910F93002708E059D168D17D
:100060000F910F93002701E053D162D10F910F93AD
:10007000002706E04DD15CD10F910F9300270EE0D1
:1000800047D156D10F9140EF40930A014FEF47B946
:1000900043BBA8B93FEE112788270FEF09B1A43061
:1000A00039F0F8B901FD0C947E00AF93A4E061C370
:1000B000F4BB00FD0C944A00AF9114BBA03041F09A
:1000C000A23051F0A53061F0A33071F0A13081F081
:1000D0000C942C030C944A000C9476020C944A0065
:1000E0000C94C5020C944A000C9470030C944A00C2
:1000F0000C94C0010C944A000C944A00143051F244
:1001000030930B014FEF4A95F1F7409109014F7081
:100110004F3059F021E08827843039F0542F522392
:1001200049F08395220F0C948C00330F31601395A6
:100130000C947E001DD11CD1133039F1833049F06D
:10014000A13049F0482F440F480F410F4F5F0C94E6
:10015000F7000C94D70081308CF4103031F011305E
:1001600039F0123041F00C944A00FFEF0C94C000BB
:10017000FFE00C94C000F3E00C94C0000C944A0023
:10018000A0E0F8B969D20C944A00803041F0813087
:1001900041F0823041F0833041F00C944A000C94DD
:1001A000FF000C9429010C9431010C9431011030A2
:1001B00031F01130B1F0123071F10C94F400A23032
:1001C00051F0A03021F0A33041F00C944A00A2E09D
:1001D0008DD10C944A000C944A00A2E087D10C9473
:1001E0004A0040E00C94F70040530C944A006AE047
:1001F000969F902D940F405D40530C944A00A03080
:1002000021F0A23031F00C944A00A1E0B9D00C9456
:100210004A000C944A00A13071F0A030C1F0A53022
:1002200071F0A23021F0A33071F00C944A00A3E0E9
:1002300057D20C944A00A0E00FD20C944A00A0E0E0
:100240000BD20C944A00A0E007D20C944A000C9404
:100250004A00A23011F00C944A00A5E096D10C940B
:100260004A00A13011F00C944A000C94C0012F9365
:100270003F934F935F936F937F93222733274427B6
:1002800055276627592F0DD02F933F934F935F9398
:100290006F937F9322273327442755276627992773
:1002A000572F543620F0545663950C9451015A3010
:1002B00020F05A5043950C945701605D0F9300272E
:1002C000062F2DD035D00F910F9300270AE327D0AA
:1002D0002FD00F91405D0F930027042F20D028D0FE
:1002E0000F91505D0F930027052F19D021D00F914A
:1002F0000F93002700EC0CD01BD00F917F916F91D2
:100300005F914F913F912F910C944A000C94C00142
:1003100001BB1FD0169A1DD016981BD0089501BBA3
:10032000179A17D0169A15D0169813D017980895C3
:100330000F93002700BB01BB159A0BD0169A09D06A
:100340000FB1169807FDF9CF15980FEF00BB0F916D
:1003500008958F939F939FE08CE90197F1F79F9108
:100360008F910895F6DFF5DFF4DFF3DFF2DF089514
:100370003F9333273395F6DF3431E4F33F9108950B
:100380000F93002701E0C4DFD3DF0F910F93002705
:1003900003E5C5DFCDDF0F910F93002705E4BFDF35
:1003A000C7DF0F910F9300270CE4B9DFC1DF0F9176
:1003B0000F93002705E4B3DFBBDF0F910F930027F6
:1003C00003E4ADDFB5DF0F910F93002704E5A7DF4E
:1003D000AFDF0F910F93002700E2A1DFA9DF0F919C
:1003E0000F93002700E59BDFA3DF0F910F930027FA
:1003F0000FE495DF9DDF0F910F93002707E58FDF57
:1004000097DF0F910F93002705E489DF91DF0F91AC
:100410000F93002702E583DF8BDF0F910F930027F7
:1004200000EC76DF85DF0F910F9300270CE477DF78
:100430007FDF0F910F93002705E471DF79DF0F91C4
:100440000F93002706E56BDF73DF0F910F930027F3
:1004500005E465DF6DDF0F910F9300270CE45FDF8C
:1004600067DF0F910F9300270AE359DF61DF0F91D8
:100470000F93002700E253DF5BDF0F910F930027FC
:1004800001E34DDF55DF0F910F9300270CE247DFAB
:100490004FDF0F910F93002702E341DF49DF0F91F8
:1004A0000F9300270CE23BDF43DF0F910F930027F0
:1004B00003E335DF3DDF0F910F93002700E22FDFCD
:1004C00037DF0F910F93002700E229DF31DF0F9113
:1004D0000F93002700E223DF2BDF0F910F930027FC
:1004E00000E21DDF25DF0F910C944A000F930027D7
:1004F00001E00EDF1DDF0F910F93002702E50FDFF4
:1005000017DF0F910F93002705E709DF11DF0F9128
:100510000F9300270EE603DF0BDF0F910F930027E9
:100520000EE6FDDE05DF0F910F93002709E6F7DEEB
:10053000FFDE0F910F9300270EE6F1DEF9DE0F913B
:100540000F93002707E6EBDEF3DE0F910F930027F2
:1005500000E2E5DEEDDE0F910F9300270DE6DFDE12
:10056000E7DE0F910F9300270FE6D9DEE1DE0F9152
:100570000F93002704E6D3DEDBDE0F910F930027F5
:1005800005E6CDDED5DE0F9108950F93002701E03B
:10059000BFDECEDE0F910F93002704E4C0DEC8DE7D
:1005A0000F910F9300270FE6BADEC2DE0F910F9373
:1005B00000270EE6B4DEBCDE0F910F93002705E6A0
:1005C000AEDEB6DE0F910F93002700ECA1DEB0DEA9
:1005D0000F910F93002702E5A2DEAADE0F910F9381
:1005E000002705E69CDEA4DE0F910F9300270DE6A1
:1005F00096DE9EDE0F910F9300270FE690DE98DEC9
:100600000F910F93002706E78ADE92DE0F910F937A
:10061000002705E684DE8CDE0F910F93002700E2B1
:100620007EDE86DE0F910F93002706E678DE80DE01
:100630000F910F9300270FE672DE7ADE0F910F9372
:1006400000270FE66CDE74DE0F910F93002704E69F
:1006500066DE6EDE0F9108950F93002701E058DEED
:1006600067DE0F910F93002705E459DE61DE0F91DD
:100670000F9300270EE653DE5BDE0F910F930027EA
:1006800004E74DDE55DE0F910F93002702E747DEAA
:100690004FDE0F910F93002709E741DE49DE0F91EE
:1006A0000F93002700E23BDE43DE0F910F930027FC
:1006B0000DE635DE3DDE0F910F9300270FE62FDEAE
:1006C00037DE0F910F93002704E629DE31DE0F910C
:1006D0000F93002705E623DE2BDE0F910C944A00D2
:1006E0000F93002701E014DE23DE0F910F93002704
:1006F00000E515DE1DDE0F910F93002701E60FDEEA
:1007000017DE0F910F93002705E709DE11DE0F9129
:100710000F93002703E703DE0BDE0F910F930027F3
:1007200005E6FDDD05DE0F910F93002704E6F7DDFA
:10073000FFDD0F910F93002700E2F1DDF9DD0F914E
:100740000F9300270DE6EBDDF3DD0F910F930027EC
:100750000FE6E5DDEDDD0F910F93002704E6DFDD09
:10076000E7DD0F910F93002705E6D9DDE1DD0F915D
:1007700008950F93002701E0CBDDDADD0F910F9391
:10078000002704E4CCDDD4DD0F910F9300270FE6A2
:10079000C6DDCEDD0F910F9300270FE6C0DDC8DD6B
:1007A0000F910F93002702E7BADDC2DD0F910F937F
:1007B000002700E2B4DDBCDD0F910F9300270FE6A8
:1007C000AEDDB6DD0F910F93002700E7A8DDB0DDA9
:1007D0000F910F93002705E6A2DDAADD0F910F937D
:0E07E00000270EE69CDDA4DD0F910C944A006C
:00000001FF
