:020000020000FC
:100000009927772744275527A0E0FFEF6AE04FEFB5
:100010004DBF41E24EBF0FEF00BB01B9002701BB4E
:1000200002B90F93002708E37AD189D10F91A1D1AA
:100030000F93002708E373D182D10F9191D10F93D1
:10004000002708E36CD17BD10F910F93002708E3C1
:1000500066D175D10F910F93002708E060D16FD161
:100060000F910F93002701E05AD169D10F910F939F
:10007000002706E054D163D10F910F9300270EE0C3
:100080004ED15DD10F9140EF40930A014FEF47B938
:1000900043BBA8B93FEE112788270FEF09B1A43061
:1000A00039F0F8B901FD0C948500AF93A4E03EC38C
:1000B000F4BB00FD0C944A00AF9114BBA03041F09A
:1000C000A23051F0A53061F0A33079F0A13089F071
:1000D0000C9427030C944A000C9471020C944A006F
:1000E0000C942703A0E00C944A000C944D030C944C
:1000F0004A000C94C7010F93002703E417D11FD1C6
:100100000F910C944A000C944A00143019F2309369
:100110000B014FEF4A95F1F7409109014F704F30B5
:1001200059F021E08827843039F0542F522349F0C8
:100130008395220F0C949300330F316013950C9428
:1001400085001DD11CD1133039F1833049F0A13025
:1001500049F0482F440F480F410F4F5F0C94FE00A9
:100160000C94DE0081308CF4103031F0113039F015
:10017000123041F00C944A00FFEF0C94C700FFE0EE
:100180000C94C700F3E00C94C7000C944A00A0E064
:10019000F8B95DD20C944A00803041F0813041F0D2
:1001A000823041F0833041F00C944A000C940601F7
:1001B0000C9430010C9438010C943801103031F05B
:1001C0001130B1F0123071F10C94FB00A23051F0FB
:1001D000A03021F0A33041F00C944A00A2E081D17C
:1001E0000C944A000C944A00A2E07BD10C944A0083
:1001F00040E00C94FE0040530C944A006AE0969F45
:10020000902D940F405D40530C944A00A03021F093
:10021000A23031F00C944A00A1E0B9D00C944A000D
:100220000C944A00A13071F0A030C1F0A53071F0FB
:10023000A23021F0A33071F00C944A00A3E02DD23B
:100240000C944A00A0E003D20C944A00A0E0FFD135
:100250000C944A00A0E0FBD10C944A000C944A0094
:10026000A23011F00C944A00A5E08AD10C944A0007
:10027000A13011F00C944A000C94C7012F933F93C6
:100280004F935F936F937F932227332744275527FC
:100290006627592F0DD02F933F934F935F936F9302
:1002A0007F93222733274427552766279927572FDF
:1002B000543620F0545663950C9458015A3020F06F
:1002C0005A5043950C945E01605D0F930027062FF2
:1002D0002DD035D00F910F9300270AE327D02FD0D0
:1002E0000F91405D0F930027042F20D028D00F914D
:1002F000505D0F930027052F19D021D00F910F9338
:10030000002700EC0CD01BD00F917F916F915F9173
:100310004F913F912F910C944A000C94C70101BB5F
:100320001FD0169A1DD016981BD0089501BB179A9E
:1003300017D0169A15D0169813D0179808950F93C2
:10034000002700BB01BB159A0BD0169A09D00FB13C
:10035000169807FDF9CF15980FEF00BB0F91089580
:100360008F939F939FE08CE90197F1F79F918F9175
:100370000895F6DFF5DFF4DFF3DFF2DF08953F9352
:1003800033273395F6DF3431E4F33F9108950F932B
:10039000002701E0C4DFD3DF0F910F93002703E5AF
:1003A000C5DFCDDF0F910F93002705E4BFDFC7DF67
:1003B0000F910F9300270CE4B9DFC1DF0F910F936A
:1003C000002705E4B3DFBBDF0F910F93002703E4A1
:1003D000ADDFB5DF0F910F93002704E5A7DFAFDF97
:1003E0000F910F93002700E2A1DFA9DF0F910F9378
:1003F000002700E59BDFA3DF0F910F9300270FE499
:1004000095DF9DDF0F910F93002707E58FDF97DFC3
:100410000F910F93002705E489DF91DF0F910F9370
:10042000002702E583DF8BDF0F910F93002700EC9D
:1004300076DF85DF0F910F9300270CE477DF7FDFF6
:100440000F910F93002705E471DF79DF0F910F9370
:10045000002706E56BDF73DF0F910F93002705E49C
:1004600065DF6DDF0F910F9300270CE45FDF67DF1F
:100470000F910F9300270AE359DF61DF0F910F936C
:10048000002700E253DF5BDF0F910F93002701E3AA
:100490004DDF55DF0F910F9300270CE247DF4FDF51
:1004A0000F910F93002702E341DF49DF0F910F9374
:1004B00000270CE23BDF43DF0F910F93002703E39C
:1004C00035DF3DDF0F910F93002700E22FDF37DF8D
:1004D0000F910F93002700E229DF31DF0F910C9479
:1004E0004A000F93002701E01ADF29DF0F910F93D5
:1004F000002702E51BDF23DF0F910F93002705E79D
:1005000015DF1DDF0F910F9300270EE60FDF17DFBA
:100510000F910F9300270EE609DF11DF0F910F9364
:10052000002709E603DF0BDF0F910F9300270EE68C
:10053000FDDE05DF0F910F93002707E6F7DEFFDEF4
:100540000F910F93002700E2F1DEF9DE0F910F9378
:1005500000270DE6EBDEF3DE0F910F9300270FE689
:10056000E5DEEDDE0F910F93002704E6DFDEE7DE28
:100570000F910F93002705E6D9DEE1DE0F91089574
:100580000F93002701E0CBDEDADE0F910F930027F7
:1005900004E4CCDED4DE0F910F9300270FE6C6DE15
:1005A000CEDE0F910F9300270EE6C0DEC8DE0F915E
:1005B0000F93002705E6BADEC2DE0F910F930027E6
:1005C00000ECADDEBCDE0F910F93002702E5AEDE3E
:1005D000B6DE0F910F93002705E6A8DEB0DE0F917F
:1005E0000F9300270DE6A2DEAADE0F910F930027DE
:1005F0000FE69CDEA4DE0F910F93002706E796DE40
:100600009EDE0F910F93002705E690DE98DE0F9196
:100610000F93002700E28ADE92DE0F910F930027EE
:1006200006E684DE8CDE0F910F9300270FE67EDE58
:1006300086DE0F910F9300270FE678DE80DE0F91A4
:100640000F93002704E672DE7ADE0F9108950F9370
:10065000002701E064DE73DE0F910F93002700E3B3
:1006600065DE6DDE0F910F93002700E35FDE67DE2E
:100670000F910F9300270AE359DE61DE0F910F936C
:10068000002700E353DE5BDE0F910F93002700E3AA
:100690004DDE55DE0F910C944A000F93002701E0C8
:1006A0003EDE4DDE0F910F93002700E53FDE47DE73
:1006B0000F910F93002701E639DE41DE0F910F9372
:1006C000002705E733DE3BDE0F910F93002703E79A
:1006D0002DDE35DE0F910F93002705E627DE2FDE96
:1006E0000F910F93002704E621DE29DE0F910F936F
:1006F000002700E21BDE23DE0F910F9300270DE69B
:1007000015DE1DDE0F910F9300270FE60FDE17DEBB
:100710000F910F93002704E609DE11DE0F910F936E
:10072000002705E603DE0BDE0F9108950F930027E7
:1007300001E0F5DD04DE0F910F93002704E4F6DD00
:10074000FEDD0F910F9300270FE6F0DDF8DD0F912E
:100750000F9300270FE6EADDF2DD0F910F930027DC
:1007600002E7E4DDECDD0F910F93002700E2DEDD10
:10077000E6DD0F910F9300270FE6D8DDE0DD0F9146
:100780000F93002700E7D2DDDADD0F910F930027EA
:1007900005E6CCDDD4DD0F910F9300270EE6C6DD14
:0807A000CEDD0F910C944A001C
:00000001FF
